:100000000C9446000C9465000C9465000C946500FB
:100010000C9465000C9465000C9465000C946500CC
:100020000C9465000C9465000C9465000C946500BC
:100030000C94A1000C9465000C9465000C94650070
:100040000C94BC010C9465000C9465000C94650044
:100050000C9465000C9465000C9465000C9465008C
:100060000C9465000C9465000C9465000C9465007C
:100070000C9465000C9465000C9465000C9465006C
:100080000C9465000C9465000C94650011241FBE4F
:10009000CFEFD0E1DEBFCDBF11E0A0E0B1E0E8E2FC
:1000A000F5E000E00BBF02C007900D92A230B1074F
:1000B000D9F721E0A2E0B1E001C01D92A031B20762
:1000C000E1F70E9439020C9492020C94000080EF38
:1000D00081BB87BB8FEF8ABB88EF84BB1092640023
:1000E00015BA08958CE08EBD85E99DE79BBD8ABD5C
:1000F00080E187BF82E083BF87B7816087BF789444
:10010000089582BB8295807F88BB089520910E015F
:1001100030910F01C90183709927892B81F0C901A2
:1001200064E670E00E947E02892B49F0C90160E913
:1001300071E00E947E029C0181E0232B09F480E0A3
:1001400008951F920F920FB60F9211240BB60F92C3
:100150002F933F934F935F936F937F938F939F93CF
:10016000AF93BF93EF93FF938091040190910501AA
:1001700001968C33910529F0909305018093040139
:1001800074C01092050110920401809106019091B3
:10019000070101968C33910529F090930701809314
:1001A000060163C0109207011092060180910801B8
:1001B0009091090101968831910529F090930901E8
:1001C0008093080152C010920901109208012091F9
:1001D0000A0130910B012F5F3F4F30930B012093A9
:1001E0000A0180910C0190910D012032310559F0E6
:1001F0002F31310551F49C012D7F2430310519F048
:1002000029303105E9F4019607C02E31310579F422
:100210000297B1F483E090E090930D0180930C017C
:1002200081E090E090930B0180930A0109C02D3189
:10023000310531F4029721F40E948600882351F39E
:1002400080910C0190910D010D9779F481E090E07F
:1002500090930D0180930C0180910E0190910F01FC
:10026000019690930F0180930E01FF91EF91BF9142
:10027000AF919F918F917F916F915F914F913F913E
:100280002F910F900BBE0F900FBE0F901F901895DF
:10029000CF93DF93FC019B01442351F0C4E6D0E0EF
:1002A000CB01BE010E947E029B01CF01BE0102C0B4
:1002B00064E670E00E947E02AC018091040180FD42
:1002C00002C080E001C080EC8BBB909103019130B3
:1002D000B1F070F09230D9F0933029F5C9016AE09D
:1002E00070E00E947E02606B6BBB109203011BC02A
:1002F000CA016AE070E00E947E0280680EC0CA01F6
:100300006AE070E00E947E0260696BBB07C0C901B1
:100310006AE070E00E947E02806A8BBB80910301DC
:100320008F5F80930301DF91CF91089521E091E0E9
:10033000892F880F880F880F85BB85E38A95F1F791
:10034000000083B38770863051F0853051F08330E0
:1003500051F0990F2F5F253059F780E0089581E023
:1003600003C082E001C083E030E021503109922FC8
:10037000990F290F820F08951F920F920FB60F92B7
:1003800011240BB60F922F933F934F935F936F936C
:100390007F938F939F93AF93BF93CF93EF93FF93ED
:1003A000C0910001C330B1F198F4C13029F1C230DD
:1003B00009F04BC0609108017091090140E0809103
:1003C0000601909107010E944801C2BB80E23CC037
:1003D000C43079F1C530C9F50E949601C82F0E943A
:1003E00096016C2F70E041E090E00E9448010E946D
:1003F00096010E94810029C0609106017091070159
:1004000040E080910401909105010E944801C2BB27
:1004100080E11AC060910C0170910D0140E0809163
:100420000A0190910B010E94480184E082BB80E4A4
:100430000BC080910E0190910F0141E0BC010E9420
:10044000480188E082BB80E888BBFF91EF91CF91A3
:10045000BF91AF919F918F917F916F915F914F91DC
:100460003F912F910F900BBE0F900FBE0F901F90DA
:1004700018950E9467000E94720085E090E09093BA
:1004800005018093040186E090E09093070180933A
:10049000060182E190E0909309018093080188E1D0
:1004A00090E090930B0180930A018BE090E0909391
:1004B0000D0180930C0182EE97E090930F018093E1
:1004C0000E0124E095E033E080916300843081F0F8
:1004D00028F4813051F0823041F0F6CF883059F065
:1004E000803191F790930001EFCF80930001ECCF22
:1004F00030930001E9CF20930001E6CFAA1BBB1B7C
:1005000051E107C0AA1FBB1FA617B70710F0A61B13
:10051000B70B881F991F5A95A9F780959095BC0134
:08052000CD010895F894FFCF0E
:020528000101CF
:00000001FF
