:100000000C9446000C9465000C9465000C946500FB
:100010000C9465000C9465000C9465000C946500CC
:100020000C9465000C9465000C9465000C946500BC
:100030000C94A3000C9465000C9465000C9465006E
:100040000C9477020C9465000C9465000C94650088
:100050000C9465000C9465000C9465000C9465008C
:100060000C9465000C9465000C9465000C9465007C
:100070000C9465000C9465000C9465000C9465006C
:100080000C9465000C9465000C94650011241FBE4F
:10009000CFEFD0E1DEBFCDBF11E0A0E0B1E0E4E8FA
:1000A000F6E000E00BBF02C007900D92A230B1074E
:1000B000D9F721E0A2E0B1E001C01D92A031B20762
:1000C000E1F70E94F7020C9440030C94000080EFCB
:1000D00081BB87BB8FEF8ABB88EF84BB1092640023
:1000E00088E082B915BA08958CE08EBD85E99DE758
:1000F0009BBD8ABD80E187BF82E083BF87B78160F7
:1001000087BF7894089582BB8295807F88BB0895CD
:1001100020910E0130910F01C90183709927892B1D
:1001200081F0C90164E670E00E942C03892B49F03C
:10013000C90160E971E00E942C039C0181E0232B3E
:1001400009F480E008951F920F920FB60F921124C8
:100150000BB60F922F933F934F935F936F937F93C1
:100160008F939F93AF93BF93EF93FF938091090178
:100170008F5F8C3319F0809309014CC010920901F4
:1001800080910A018F5F8C3319F080930A0142C07D
:1001900010920A0180910B018F5F883119F08093D2
:1001A0000B0138C010920B0190910C019F5F90934E
:1001B0000C0180910D01903241F09F3141F4982F54
:1001C0009D7F943011F09930A9F48F5F05C09E3166
:1001D00049F4823079F483E080930D0181E08093CB
:1001E0000C0108C09D3131F4823021F40E94880056
:1001F000882389F380910D018D3061F481E0809333
:100200000D0180910E0190910F01019690930F01C5
:1002100080930E01FF91EF91BF91AF919F918F91CC
:100220007F916F915F914F913F912F910F900BBEF6
:100230000F900FBE0F901F901895CF93DF939B01E7
:10024000442361F0C4E6D0E0BE010E942C03FC010F
:10025000C901BE010E942C03CB0104C0FC01FF2791
:10026000CB0199272091090120FD02C020E001C0A7
:1002700020EC2BBB209108012130A9F068F022303E
:10028000D1F0233019F56AE070E00E942C03606B16
:100290006BBB109208011AC0CF016AE070E00E94A7
:1002A0002C0380680DC0CF016AE070E00E942C032F
:1002B00060696BBB06C06AE070E00E942C03806A34
:1002C0008BBB809108018F5F80930801DF91CF91F4
:1002D000089530E091E041E051E063E27AE2842F5A
:1002E000880F880F880F85BB85E38A95F1F700009A
:1002F00083B38770873019F4109206011DC08630D1
:1003000041F480910601811117C05093060121E04C
:1003100013C0853041F48091060181110DC05093C6
:10032000060122E009C0833039F480910601811171
:1003300003C05093060123E0440F809106018823F7
:1003400079F0943069F4213019F47093040112C0EB
:10035000223019F4109204010DC0609304010AC008
:1003600080910601882331F0943021F0822F830F91
:10037000809304019F5F3D5F953009F0B0CF0895F1
:10038000209104012A32E9F020910401203381F008
:1003900020910201309103018217930748F0809168
:1003A0000401280F311D309303012093020109C07D
:1003B00080910401833229F4809105018F5F80933D
:1003C0000501809104010E948300809102019091B7
:1003D000030141E0BC010C941D01809105010E94C4
:1003E000830080910501823099F128F4882361F01F
:1003F000813001F10895843009F45AC008F44BC0EB
:10040000853009F462C008958FE097E20E94C00130
:1004100080910501813009F069C0809102019091BD
:10042000030190930F0180930E011092030110922B
:10043000020108958CE090E00E94C00180910501C6
:10044000823009F053C08091020180930D0108951C
:1004500080910D01823051F40E948800882319F0A8
:100460008DE190E00DC08CE190E00AC08D7F84307A
:1004700011F0893019F48EE190E002C08FE190E034
:100480000E94C00180910501833081F580910201B5
:1004900080930C01089587E190E00E94C001809153
:1004A0000501843019F58091020180930B010895B4
:1004B0008BE390E00E94C001809105018530B1F48A
:1004C0008091020180930A0108958BE390E00E94DD
:1004D000C00180910501863049F48091020180932A
:1004E00009018091050181E08093000108951F9228
:1004F0000F920FB60F9211240BB60F922F933F93CA
:100500004F935F936F937F938F939F93AF93BF931B
:10051000CF93EF93FF93C0910001C33049F180F472
:10052000C130D1F0C230F1F560910B0170E08091E3
:100530000A0140E090E00E941D01C2BB80E224C09D
:10054000C43021F1C53071F50E9469010E94ED01AE
:1005500080E182BB18BA26C060910A0170E08091E8
:10056000090140E090E00E941D01C2BB80E10CC087
:1005700060910D0170E080910C0140E090E00E94DC
:100580001D0184E082BB80E488BB0CC080910E0119
:1005900090910F0141E0BC010E941D0188E082BBE7
:1005A00080E8F2CF80910901843060F480910A01E3
:1005B0008E3141F480910B01853021F481E08093EC
:1005C000000101C013B8FF91EF91CF91BF91AF919E
:1005D0009F918F917F916F915F914F913F912F915B
:1005E0000F900BBE0F900FBE0F901F9018950E949A
:1005F00067000E94740085E0809309019DE190935B
:100600000A0180930B0188E180930C018BE08093B9
:100610000D0182EE97E090930F0180930E0124E08C
:1006200095E033E080916300843081F028F48130DC
:1006300051F0823041F0F6CF883059F0803191F797
:1006400090930001EFCF80930001ECCF3093000135
:10065000E9CF20930001E6CFAA1BBB1B51E107C0E5
:10066000AA1FBB1FA617B70710F0A61BB70B881F42
:10067000991F5A95A9F780959095BC01CD010895D1
:04068000F894FFCF1C
:02068400010172
:00000001FF
