:100000000C9446000C9463000C9463000C94630001
:100010000C9463000C9463000C9463000C946300D4
:100020000C9463000C9463000C9463000C946300C4
:100030000C9455010C9463000C9463000C946300C1
:100040000C94BE000C9463000C9463000C94630049
:100050000C9463000C9463000C9463000C94630094
:100060000C9463000C9463000C9463000C94630084
:100070000C9463000C9463000C9463000C94630074
:100080000C9463000C9463000C94630011241FBE55
:10009000CFEFD0E1DEBFCDBF11E0A0E0B1E0ECEEEC
:1000A000FEE002C005900D92A230B107D9F721E021
:1000B000A2E0B1E001C01D92A031B207E1F70E94B9
:1000C00065000C9474070C940000CF93DF93CDB7B8
:1000D000DEB70E945A020E947D0285E090E0909374
:1000E00005018093040186E090E0909307018093DE
:1000F000060182E190E0909309018093080188E174
:1001000090E090930B0180930A018BE090E0909334
:100110000D0180930C0182EE97E090930F01809384
:100120000E0183E690E0FC018081882F90E084300E
:100130009105B9F08530910534F48130910549F08D
:10014000029759F01AC08830910579F0409789F0EC
:1001500014C081E08093010110C082E0809301010E
:100160000CC083E08093010108C084E0809301010A
:1001700004C085E0809301010000D3CF1F920F924D
:1001800000905F000F9211240F931F932F933F93C2
:100190004F935F936F937F938F939F93AF93BF938F
:1001A000EF93FF93CF93DF93CDB7DEB7809101013B
:1001B000882F90E08330910581F18430910534F4EB
:1001C0008130910551F00297C1F058C084309105FB
:1001D000A1F1059709F441C051C020910601309169
:1001E0000701809104019091050140E0B9010E944E
:1001F000090381E00E94A50241C0209108013091CD
:100200000901809106019091070140E0B9010E9427
:10021000090382E00E94A50231C020910C013091B7
:100220000D0180910A0190910B0140E0B9010E94FB
:10023000090384E00E94A50221C020910E013091A3
:100240000F0180910E0190910F0141E0B9010E94D0
:10025000090388E00E94A50211C00E940004082F33
:1002600010E00E940004882F90E041E0B8010E9455
:1002700009030E9400040E94A50200000000DF9113
:10028000CF91FF91EF91BF91AF919F918F917F910E
:100290006F915F914F913F912F911F910F910F900F
:1002A00000925F000F901F9018951F920F92009080
:1002B0005F000F9211242F933F934F935F936F939F
:1002C0007F938F939F93AF93BF93EF93FF93CF93BE
:1002D000DF93CDB7DEB780910401909105010196BF
:1002E0009093050180930401809104019091050190
:1002F000CC9709F0CAC010920501109204018091B8
:1003000006019091070101969093070180930601E1
:100310008091060190910701CC9709F0B6C0109228
:100320000701109206018091080190910901019640
:10033000909309018093080180910801909109012F
:10034000489709F0A2C0109209011092080180910B
:100350000A0190910B01019690930B0180930A0181
:1003600080910A0190910B01809781F480910C019A
:1003700090910D01019690930D0180930C0181E005
:1003800090E090930B0180930A016AC080910A016A
:1003900090910B014F9749F580910C0190910D01BF
:1003A000049799F080910C0190910D01069769F0E6
:1003B00080910C0190910D01099739F080910C0109
:1003C00090910D010B9709F04BC080910C01909119
:1003D0000D01019690930D0180930C0181E090E056
:1003E00090930B0180930A013BC080910A01909188
:1003F0000B014E97B1F480910C0190910D01029781
:1004000079F580910C0190910D01019690930D0169
:1004100080930C0181E090E090930B0180930A019E
:100420001FC080910A0190910B014D97C9F48091F2
:100430000C0190910D01029799F40E94BC0288234F
:1004400079F480910C0190910D01019690930D012A
:1004500080930C0181E090E090930B0180930A015E
:1004600080910C0190910D010D9779F481E090E05D
:1004700090930D0180930C0180910E0190910F01DA
:10048000019690930F0180930E010000DF91CF91B0
:10049000FF91EF91BF91AF919F918F917F916F915C
:1004A0005F914F913F912F910F9000925F000F90BD
:1004B0001F901895CF93DF93CDB7DEB787E390E019
:1004C00021E330E040EFF9014083FC0140838AE3FF
:1004D00090E02FEFFC01208384E390E028EFFC0103
:1004E000208384E690E0FC01108285E390E0FC012B
:1004F00010820000DF91CF910895CF93DF93CDB7A5
:10050000DEB78EE490E02CE0FC0120838AE490E0EA
:1005100025E93DE7FC013183208387E590E020E178
:10052000FC01208383E590E022E0FC01208387E545
:1005300090E027E530E0F90120812160FC01208373
:1005400078940000DF91CF910895CF93DF931F92AD
:10055000CDB7DEB7898382E390E02981FC01208357
:1005600088E390E029812295207FFC012083000010
:100570000F90DF91CF910895CF93DF93CDB7DEB782
:1005800080910E0190910F0183709927892BE9F1D9
:1005900040910E0150910F01CA019695879596954D
:1005A00087959C01ABE7B4E10E946B059695879512
:1005B00064E6689F9001699F300D1124CA01821B77
:1005C000930B892B11F140910E0150910F01CA013B
:1005D000929582958F7089279F7089279C01AEE341
:1005E000BAE00E946B05BC0120E931E0629FC001C6
:1005F000639F900D729F900D11249A01281B390B57
:10060000C901892B11F081E001C080E0DF91CF9119
:100610000895CF93DF9300D000D01F92CDB7DEB7FF
:100620009A8389837C836B834D838D81882359F1E1
:100630008B819C8196958795969587959C01ABE7D4
:10064000B4E10E946B05969587959C838B834981C5
:100650005A81CA0196958795969587959C01ABE737
:10066000B4E10E946B059C013695279564E6629F74
:10067000C001639F900D11249A01281B390BC901F9
:100680009A8389831BC049815A81CA0196958795AF
:10069000969587959C01ABE7B4E10E946B059C01A0
:1006A0003695279564E6629FC001639F900D1124E3
:1006B000FA01E81BF90BCF019A8389838BE390E061
:1006C000209104013091050121703327232B11F073
:1006D00020EC01C020E0FC01208380910201882FE2
:1006E00090E08130910591F1823091051CF4892BC5
:1006F00049F07DC08230910509F440C0039709F4A8
:1007000061C075C0EBE3F0E049815A819A01ADEC1C
:10071000BCEC0E946B059695879596958795969566
:100720008795880F991F9C01220F331F220F331FBB
:10073000820F931F9A01281B390BC901806880839F
:10074000809102018F5F8093020151C04BE350E022
:1007500089819A819C01ADECBCEC0E946B05969559
:10076000879596958795969587958069FA018083F8
:10077000809102018F5F8093020139C0EBE3F0E0CA
:100780004B815C819A01ADECBCEC0E946B059695A7
:1007900087959695879596958795880F991F9C01C3
:1007A000220F331F220F331F820F931F9A01281B22
:1007B000390BC901806A8083809102018F5F809329
:1007C000020115C04BE350E08B819C819C01ADEC94
:1007D000BCEC0E946B0596958795969587959695A6
:1007E0008795806BFA01808310920201000000005F
:1007F0000F900F900F900F900F90DF91CF91089571
:10080000CF93DF93CDB7DEB7A7970FB6F894DEBFCF
:100810000FBECDBF1A8281E08B8381E08C8381E0A3
:1008200090E09E838D8320C185E390E02B81220F91
:10083000220F220FFC01208380E090E0A0EAB1E4C7
:1008400088879987AA87BB872BEA3AEA4AE250E46D
:10085000688579858A859B850E940707DC01CB0125
:100860008C879D87AE87BF8788859985AA85BB853C
:100870009C01AD01BC01CD010E947B05DC01CB01D7
:10088000888B998BAA8BBB8B20E030E040E85FE33C
:100890006C857D858E859F850E94E70588231CF4E5
:1008A00081E08C8BB2C020E03FEF4FE757E46889CE
:1008B00079898A899B890E94020718160CF07BC0EF
:1008C00020E030E04AE754E4688579858A859B8595
:1008D0000E94EC05DC01CB018D8B9E8BAF8BB88F1A
:1008E00020E030E04AEF54E46D897E898F89988D4D
:1008F0000E940707DC01CB01898F9A8FAB8FBC8FD9
:1009000020E030E040E85FE3698D7A8D8B8D9C8D2F
:100910000E94E70588232CF481E090E09E8F8D8F64
:100920003FC020E03FEF4FE757E4698D7A8D8B8D14
:100930009C8D0E94020718164CF520E030E040E242
:1009400051E46D897E898F89988D0E940707DC01AB
:10095000CB01BC01CD010E945E06DC01CB019E8F64
:100960008D8F0FC088EC90E098A38F8F8F8D98A10A
:100970000197F1F798A38F8F8D8D9E8D01979E8F94
:100980008D8F8D8D9E8D892B69F73FC0698D7A8DF6
:100990008B8D9C8D0E945E06DC01CB019E8F8D8F1E
:1009A0008D8D9E8D9AA389A389A19AA10197F1F7B4
:1009B0009AA389A32AC020E030E04FE753E46C8576
:1009C0007D858E859F850E9402071816ACF4688984
:1009D00079898A899B890E945E06DC01CB019CA3F0
:1009E0008BA38BA19CA19EA38DA38DA19EA10197FA
:1009F000F1F79EA38DA30FC06C857D858E859F85A5
:100A00000E945E06DC01CB018C8B8C898FA38FA1A9
:100A10008A95F1F78FA383E390E0FC0180818770D2
:100A20008F838F81863029F481E0898381E08A83F6
:100A300020C08F81853029F482E0898381E08A8318
:100A400018C08F81833029F483E0898381E08A8311
:100A500010C08B81880F8B838C818F5F8C838D81FD
:100A60009E8101969E838D838D819E8105970CF4D6
:100A7000DBCE8A81882371F08C81843059F08C819F
:100A8000882F90E00197982F892F880F980F8981E0
:100A9000890F18C08A81882391F08C81843079F481
:100AA0008981813011F48AE20DC08981823011F48C
:100AB00080E008C08981833021F483E203C080E0B4
:100AC00001C00000A7960FB6F894DEBF0FBECDBFE1
:100AD000DF91CF910895A29FB001B39FC001A39F62
:100AE000700D811D1124911DB29F700D811D112467
:100AF000911D08955058BB27AA270E9492050C9477
:100B0000C8060E94BA0638F00E94C10620F039F4E7
:100B10009F3F19F426F40C94B7060EF4E095E7FB1A
:100B20000C94B106E92F0E94D90658F3BA17620750
:100B300073078407950720F079F4A6F50C94FB065B
:100B40000EF4E0950B2EBA2FA02D0B01B9019001E8
:100B50000C01CA01A0011124FF27591B99F0593F2C
:100B600050F4503E68F11A16F040A22F232F342F74
:100B70004427585FF3CF469537952795A795F040C2
:100B80005395C9F77EF41F16BA0B620B730B840BD7
:100B9000BAF09150A1F0FF0FBB1F661F771F881F8F
:100BA000C2F70EC0BA0F621F731F841F48F48795E7
:100BB00077956795B795F7959E3F08F0B0CF9395D9
:100BC000880F08F09927EE0F9795879508950E9452
:100BD0008D0608F481E008950E9400060C94C80672
:100BE0000E94C10658F00E94BA0640F029F45F3F07
:100BF00029F00C94B10651110C94FC060C94B70624
:100C00000E94D90668F39923B1F3552391F3951BFC
:100C1000550BBB27AA2762177307840738F09F5F1D
:100C20005F4F220F331F441FAA1FA9F335D00E2E8A
:100C30003AF0E0E832D091505040E695001CCAF7F7
:100C40002BD0FE2F29D0660F771F881FBB1F2617BA
:100C500037074807AB07B0E809F0BB0B802DBF0191
:100C6000FF2793585F4F3AF09E3F510578F00C9460
:100C7000B1060C94FC065F3FE4F3983ED4F38695EE
:100C800077956795B795F7959F5FC9F7880F911D81
:100C90009695879597F90895E1E0660F771F881F6D
:100CA000BB1F621773078407BA0720F0621B730B20
:100CB000840BBA0BEE1F88F7E09508950E94E106B9
:100CC00088F09F5798F0B92F9927B751B0F0E1F00D
:100CD000660F771F881F991F1AF0BA95C9F714C0BD
:100CE000B13091F00E94FB06B1E008950C94FB0630
:100CF000672F782F8827B85F39F0B93FCCF38695F6
:100D000077956795B395D9F73EF490958095709552
:100D100061957F4F8F4F9F4F0895990F0008550F92
:100D2000AA0BE0E8FEEF16161706E807F907C0F071
:100D300012161306E407F50798F0621B730B840B79
:100D4000950B39F40A2661F0232B242B252B21F453
:100D500008950A2609F4A140A6958FEF811D811DF3
:100D6000089597F99F6780E870E060E008959FEF2D
:100D700080EC089500240A94161617061806090632
:100D8000089500240A941216130614060506089501
:100D9000092E0394000C11F4882352F0BB0F40F489
:100DA000BF2B11F460FF04C06F5F7F4F8F4F9F4FC9
:100DB000089557FD9058440F551F59F05F3F71F04B
:100DC0004795880F97FB991F61F09F3F79F08795B2
:100DD0000895121613061406551FF2CF4695F1DF3B
:100DE00008C0161617061806991FF1CF86957105CB
:100DF000610508940895E894BB2766277727CB01FF
:100E000097F908950E948D0608F48FEF08950E94C7
:100E10001A070C94C8060E94BA0638F00E94C10650
:100E200020F0952311F00C94B1060C94B706112410
:100E30000C94FC060E94D90670F3959FC1F3950FA0
:100E400050E0551F629FF001729FBB27F00DB11D4E
:100E5000639FAA27F00DB11DAA1F649F6627B00DDE
:100E6000A11D661F829F2227B00DA11D621F739FC7
:100E7000B00DA11D621F839FA00D611D221F749FD5
:100E80003327A00D611D231F849F600D211D822F1C
:100E9000762F6A2F11249F5750409AF0F1F0882343
:100EA0004AF0EE0FFF1FBB1F661F771F881F915070
:100EB0005040A9F79E3F510580F00C94B1060C9468
:100EC000FC065F3FE4F3983ED4F3869577956795EB
:100ED000B795F795E7959F5FC1F7FE2B880F911D9A
:0C0EE0009695879597F90895F894FFCF38
:020EEC00010102
:00000001FF
